:020000040800F2
:10000000A804002001010008CF12000833120008E4
:10001000CD120008B9010008D91400080000000042
:10002000000000000000000000000000371400087D
:10003000BB0100080000000081130008391400080B
:100040001B0100081B0100081B0100081B01000820
:100050001B0100081B0100081B0100081B01000810
:100060001B0100081B0100081B0100081B01000800
:100070001B0100081B0100081B0100081B010008F0
:100080001B0100081B0100081B0100081B010008E0
:100090001B0100081B0100081B0100081B010008D0
:1000A0001B0100081B0100081B0100081B010008C0
:1000B0001B0100081B0100081B0100081B010008B0
:1000C0001B0100081B0100081B0100081B010008A0
:1000D0001B0100081B0100081B0100081B01000890
:1000E0001B0100081B0100081B010008DFF80CD0F1
:1000F00000F02AF800480047B9150008A8040020BD
:100100000648804706480047FEE7FEE7FEE7FEE7B1
:10011000FEE7FEE7FEE7FEE7FEE7FEE791140008D4
:10012000ED000008D2B201E000F8012B491EFBD21D
:1001300070470022F6E710B513460A4604461946F2
:10014000FFF7F0FF204610BD064C074D06E0E068C3
:1001500040F0010394E8070098471034AC42F6D30E
:10016000FFF7C8FFC4190008E419000870B5044679
:1001700000688168C943C9071CD1816821F0010169
:10018000816000F0CBFA05460FE000BF00F0C6FA30
:10019000401B022809D9A06A40F01000A062E06A62
:1001A00040F00100E062012070BD20688068C0431B
:1001B000C007EBD0002070BDFEE77047F8B5002205
:1001C000009290F8244083681646012C1CD001242C
:1001D00080F82440D3B14D680B691F249D4226D876
:1001E0001F055B1BC3F103030D6803EB83039D40F5
:1001F000A7F580172F439C40036844F440159C6B7F
:10020000AC4327439F631EE00220F8BD4B68012BDF
:1002100005D0826A42F020028262012213E0036864
:100220009C6B0D686FF3150444EAC5340AE05B1B50
:10023000C3F1030303EB83039C40036844F44015BC
:100240009C6BAC439C6303689C68E443E40706D062
:100250009C6847F20105AC438D692C439C604B7D43
:10026000012B08D18B69B3F5E04F08D0826A42F0C8
:100270002002826201220B7D012B06D00CE0036874
:100280005C6844F480645C60F5E74B7DA3B1826AEE
:1002900042F02002826201220B68072405680A2BC3
:1002A00010D3EF680A3B03EB43039C40A7438C68E1
:1002B0009C402743EF600EE003685C6844F4805480
:1002C0005C60E9E72F6903EB43039C40A7438C681C
:1002D0009C4027432F610B68102B01D0112B04D1B8
:1002E00003689C6844F400049C604B68012B10D0A8
:1002F000022B16D0032B03681BD01C6ACD686FF34A
:100300000B042C431C620B68102B19D0112B17D037
:1003100037E003685C69CD686FF30B042C435C61C4
:10032000F1E703689C69CD686FF30B042C439C6173
:10033000E9E7DC69CD686FF30B042C43DC61E2E78D
:10034000124C0368A34217D19C68240219D49C68FC
:1003500044F400049C600968102912D10C490D4B2B
:100360000968B1FBF3F101EB8101490000E0491E8E
:1003700000910029FBD104E0816A41F020018162F3
:10038000012280F824601046F8BD000000240140DE
:100390001C00002040420F002DE9F0414FF0000703
:1003A00004003D467ED0A06A002628B9E66284F8A3
:1003B0002460204600F07EF82046FFF7D7FEA16AB1
:1003C000C90600D420B1A06A40F01000A06269E024
:1003D000A16A21F4885141F00201A1626268E169D9
:1003E000237B0A4347EA43010A43A1684FF480771D
:1003F000B94209D0012907D05FF0000194F814C078
:10040000BCF1010F02D00AE03946F7E7F3B1A36A65
:1004100043F02003A362E36A43F00103E36223682D
:10042000D3F804C02CF4694C4CEA010CC3F804C0A6
:1004300021688B68DFF870C003EA0C0313438B60FC
:10044000A168B9420BD0012909D00CE0DFF85CC0EB
:10045000A3690CEB43330B4343F40061DFE7218ACC
:100460000D05A5F580152168CB6A23F470032B4395
:10047000CB62216889680E4B1940914208D1E6622F
:10048000A16A21F0020141F00101A162BDE8F08101
:10049000A06A20F0020040F01000A062E06A40F084
:1004A0000100E0620120F1E7FDF7E1FF00E0FFFF5E
:1004B000FE0E1FFF00B585B0002100910191029151
:1004C000039100680E49884217D10E48816941F4B2
:1004D00000718161816901F400710491816941F0C9
:1004E000040181618069694600F0040004900320E2
:1004F00000900190044800F01BF805B000BD00001A
:1005000000240140001002400008014070B504467C
:1005100000F004F90546601C02D004480078044449
:1005200000F0FCF8401BA042FAD370BD1000002080
:100530002DE9F84FDFF8B891002409F1040A0AF117
:10054000040B23460F270BF1040EC9E00125A5403B
:100550002A40AA427DD1674ED1F804C0ACEB060810
:10056000B44532D014DCBCF1030F3AD009DCBCF145
:10057000000F2AD0BCF1010F1CD0BCF1020F31D109
:100580001DE0BCF1110F17D0BCF1120F2AD119E0F8
:10059000B8F5881F19D006DCB8F5803F15D0B8F53E
:1005A000801F1FD111E0B8F5001F0ED0B8F5041F51
:1005B00018D10AE0CB6815E0CB681B1D12E0CB68B0
:1005C00008330FE0CB680C330CE08B682BB1012BA8
:1005D0004FF0080303D0456104E0042302E0056105
:1005E00000E00023FF2A01D8064601E000F10406DE
:1005F0004FEA840501D9A5F12005D6F8008007FA55
:1006000005FC28EA0C0803FA05F548EA0508C6F8CF
:1006100000804D68ED0062D5374DAE6946F00106A9
:10062000AE61AD6924F0030605F001050095334D78
:1006300006EB050CDCF80850A607360F07FA06F89B
:1006400025EA0805DFF8B880404503D14FF00008DF
:1006500017E044E0DFF8AC80404502D14FF00108DC
:100660000FE0DFF8A480404502D14FF0020808E017
:10067000DFF89880404502D14FF0030801E04FF0C9
:10068000040808FA06F848EA0508CCF808804D681E
:10069000D9F80060ED034D4601D5164300E09643BE
:1006A0002E604D68DAF80060AD03554601D516435B
:1006B00000E096432E604D68DBF80060ED025D4679
:1006C00001D5164300E096432E604D68DEF80060C9
:1006D000AD02754601D5164300E096432E60641CBA
:1006E0000D682A46E5407FF431AFBDE8F88F000081
:1006F0000004014000001110001002400000014001
:1007000000080140000C01400010014000140140AD
:100710000AB1016170470904FBE7000001488068E5
:1007200070470000100000200248816802781144E0
:100730008160704710000020074810B5016841F043
:1007400010010160032000F067F8002000F006F8B7
:1007500000F024F8002010BD0020024070B50D4DBF
:1007600004464FF47A712878B1FBF0F00A49096821
:10077000B1FBF0F000F049FD48B9102C07D200227F
:100780002146501E00F028F800206C6070BD01204A
:1007900070BD0000100000201C0000200C4808B5AF
:1007A000816941F001018161816901F001010091DC
:1007B000C16941F08051C161C06900F08050009072
:1007C0000448416821F0E06141F00071416008BDDA
:1007D0000010024000000140F0B40E4B1B680C46B4
:1007E000C3F30223C3F10705042D00D90425191D05
:1007F000072901D2002300E0DB1E012606FA05F1DD
:10080000491E214099409E40761E16403143F0BC5F
:1008100000F063BE0CED00E0064900F00702086836
:100820004FF6FF03184040EA0220034A10430860D5
:10083000704700000CED00E00000FA052DE9F843D8
:1008400005460078354CC00754D0E0690026C0004A
:1008500008D4E06940F08050E061E069012600F0D2
:10086000805000902E480168C90512D40168804666
:1008700041F480710160FFF751FF074605E000BFBA
:10088000FFF74CFFC01B642823D8D8F80000C00530
:10089000F6D5206A10F4407021D0A98801F4407187
:1008A00081421CD0206A1F49012220F440700A6056
:1008B00000220A602062C00711D0FFF72FFF074611
:1008C00041F2883808E000BFFFF728FFC11B41450F
:1008D00002D90320BDE8F883206A8007F4D5206A96
:1008E000696820F44070084320621EB1E06920F07E
:1008F0008050E0612878800705D56068A96820F4F9
:100900004040084360602878C00605D56068E96803
:1009100020F48000084360600020DBE70010024004
:1009200000700040400442422DE9F0470F460500A8
:1009300061D0434E306800F00700B84209D23068F9
:1009400020F0070038433060306800F00700B842FC
:1009500051D128683B4C810712D5400703D5606808
:1009600040F4E06060602878000703D5606840F4D8
:10097000605060606068A96820F0F0000843606023
:100980002878C00728D06868012810D0216802287C
:1009900010D0890700292EDA616821F00301014394
:1009A0006160FFF7BBFE804641F288390DE02168A7
:1009B0008903EFE78901EDE7FFF7B0FEA0EB08013F
:1009C000494502D90320BDE8F0876068696800F0F6
:1009D0000C00B0EB810FEFD1306800F00700B84297
:1009E0000BD9306820F0070038433060306800F0E1
:1009F0000700B84201D00120E5E72878400705D577
:100A00006068E96820F4E0600843606028780007C7
:100A100006D56068296920F4605040EAC100606032
:100A200000F018F86168084AC1F30311515CC8402E
:100A30000649086006480068FFF790FE0020C2E7FC
:100A40000020024000100240B41900081C000020E1
:100A50001400002012A185B00FC98DE80F0014A06A
:100A6000144A006804905168134801F00C03042BE9
:100A700010D0082B0ED1C1F38343C9031DF8030026
:100A80000AD5516804AAC1F34041515C0A4A504357
:100A9000B0FBF1F005B0704708494843FAE70000A1
:100AA00002030405060708090A0B0C0D0E0F1010AF
:100AB000010200000010024000127A0000093D000F
:100AC0002DE9F84F040070D02078C04DC00749D000
:100AD0006868C0F38100012807D06868C0F381000E
:100AE000022809D16868C00306D52868800339D573
:100AF00060680028E7D035E06068B0F5803F0BD033
:100B000010B1B0F5A02F11D0286820F480302860F3
:100B1000286820F4802002E0286840F480302860B3
:100B2000606890B1FFF7FAFD06460AE0286840F4D5
:100B300080202860F0E700BFFFF7F0FD801B6428ED
:100B400073D828688003F7D50CE0FFF7E7FD064669
:100B500005E000BFFFF7E2FD801B6428F0D828689D
:100B60008003F7D420789A4E80074FF001094FF0A8
:100B7000000839D5686810F00C0F07D06868C0F31A
:100B80008100022809D16868C00306D4286880075C
:100B900014D52069012808D110E02069B0B1C6F849
:100BA0000090FFF7BBFD074605E00AE1FFF7B6FD41
:100BB000C01B0228C4D828688007F7D52868616957
:100BC00020F0F80040EAC10028600DE0C6F800807F
:100BD000FFF7A4FD074604E0FFF7A0FDC01B0228B5
:100BE00023D828688007F7D4207800072CD57948C7
:100BF000A169D9B1C0F80090FFF790FD074604E065
:100C0000FFF78CFDC01B02280FD8686A8007F7D554
:100C100071484FF4FA510068B0FBF1F0009000BF4A
:100C20000098411E0091FAD20EE080E0C0F80080EA
:100C3000FFF774FD074604E0FFF770FDC01B0228B4
:100C400075D8686A8007F7D42078400760D5E869CE
:100C50000027C00008D4E86940F08050E861E869E6
:100C6000012700F0805000905C480168C90513D44A
:100C70000168834641F480710160FFF74FFD8246B1
:100C800006E000BFFFF74AFDA0EB0A0064284ED83B
:100C9000DBF80000C005F5D5E06801280AD008B1EE
:100CA000052813D0286A20F001002862286A20F065
:100CB000040002E0286A40F001002862E06841F286
:100CC000883B98B1FFF72AFD82460BE0286A40F086
:100CD00004002862EEE700BFFFF720FDA0EB0A0149
:100CE00059455AD8286A8007F6D50CE0FFF716FD5B
:100CF000824605E0FFF712FDA0EB0A0159454CD8EA
:100D0000286A8007F6D41FB1E86920F08050E861B6
:100D1000E06988B36968C1F38101022944D00228DF
:100D2000C6F8608004D0FFF7F9FC044638E034E0F0
:100D3000FFF7F4FC074604E0FFF7F0FCC01B0228B5
:100D40002BD828688001F7D4206AB0F5803F05D100
:100D50006868A16820F4003008436860D4E908019D
:100D60000843696821F4741108436860C6F860900C
:100D7000FFF7D4FC044606E025E000BFFFF7CEFCF9
:100D8000001B022809D828688001F7D51BE000BFA6
:100D9000FFF7C4FC001B022802D90320BDE8F88F2E
:100DA00028688001F4D40EE00128F7D06868226A30
:100DB00000F48031914204D1616A00F470108842DD
:100DC00001D00120EAE70020E8E70000001002401F
:100DD00000004242800442421C000020007000409B
:100DE00070B5040005D00025A56294F8510010B13B
:100DF00006E0012070BD84F85050204600F02EF827
:100E0000022084F851002068016821F0400101604F
:100E1000D4E901010843D4E903121143084361698D
:100E20000843218B01F400710843E1690843216AFA
:100E30000843A16A084321680860A069042101EA07
:100E40001040216848602068C16921F40061C161D7
:100E50006565012084F85100002070BD30B585B073
:100E60000024009401940294039400681449884279
:100E700023D11448816941F480518161816901F471
:100E800080510491816941F00401816180690E4DB6
:100E900000F004000490A0200090022001900320A4
:100EA000039069462846FFF743FB4020CDE9000444
:100EB000694628460294FFF73BFB05B030BD0000B1
:100EC0000030014000100240000801402DE9F84FB9
:100ED000044690F8500000271D4616468946012812
:100EE0000DD04FF0010B84F850B0FFF717FC80468F
:100EF00094F85100BA46012804D002278EE002205F
:100F0000BDE8F88FB9F1000F7DD0002E7BD0032013
:100F100084F85100C4F854A0C4F83090A686E68640
:100F2000C4F838A0A4F83CA0A4F83EA0C4F844A09B
:100F3000C4F840A0A068B0F5004F04D12068016853
:100F400041F48041016020680168490603D40168CA
:100F500041F040010160E068B0F5006F606803D0C7
:100F600030B3012E24D040E008B1012E1CD1206BFB
:100F700021680088C86006E020688168890709D573
:100F8000216B0988C160206B801C2063E08E401EAD
:100F9000E08609E0FFF7C2FBA0EB0800A84202D3FD
:100FA000681C01D031E07DB3E08E0028E4D11FE061
:100FB000206B21680078087306E020688168890743
:100FC00009D5216B09780173206B401C2063E08EEA
:100FD000401EE08609E0FFF7A1FBA0EB0800A84255
:100FE00002D3681C01D010E075B1E08E0028E4D176
:100FF00042462946204600F0C4F908B12020606529
:10100000A06820B107E008E0FFE7032706E02068BA
:10101000C16880680090606D00B1012784F851B00C
:1010200084F850A038466BE72DE9F84F044690F855
:10103000500000270A9E1D4692468B464FF001093C
:1010400001280ED0012084F85000FFF767FB80468E
:1010500094F85100616801280CD0B1F5827F07D166
:1010600002E00220BDE8F88FA16809B9042801D088
:101070000227C2E0BBF1000F27D0BAF1000F24D045
:101080001DB394F85100042802D0052084F85100C3
:1010900000206065C4F838A0E587A587C4F830B0A3
:1010A000E586A5862064606420680168490603D44B
:1010B000016841F040010160E068B0F5006F6068D0
:1010C00005D0E8B3012D46D07FE0012795E008B1B7
:1010D000012D39D1206B21680088C860206B801CED
:1010E0002063E08E401EE0862EE02068816889073C
:1010F0000FD5E18E69B1B9F1010F0AD1216B0988D1
:10110000C160206B801C2063E08E401EE0864FF0A3
:10111000000920688168C9070CD0E18F51B1C0680F
:10112000A16B0880A06B801CA063E08F401EE0874D
:101130004FF00109FFF7F2FAA0EB0800B04200E01F
:1011400009E001D3701C50D1E08E0028CDD1E08F92
:101150000028CAD13FE0206B216800780873206B1B
:10116000401C2063E08E401EE0862EE020688168EF
:1011700089070FD5E18E69B1B9F1010F0AD1216B51
:1011800009780173206B401C2063E08E401EE086CE
:101190004FF0000920688168C9070CD0E18F51B178
:1011A000C068A16B0870A06B401CA063E08F401E5C
:1011B000E0874FF00109FFF7B1FAA0EB0800B04259
:1011C00002D3701C01D010E07EB1E08E0028CDD19A
:1011D000E08F0028CAD142463146204600F0D1F8BF
:1011E00028B101272020606507E0032705E0A068FB
:1011F00018B92068C16880680090012084F8510007
:10120000002084F8500038462CE710B5401EB0F19D
:10121000807F01D3012010BD4FF0E02460610F21D9
:10122000601700F05AF90020A0610720206100201B
:1012300010BDFEE770B588B01C216846FEF779FF47
:1012400014481349002401608915816004730475F2
:10125000012505614FF460214460C161FFF79CF8EE
:10126000CDE900454FF4E040022606908DF8154088
:10127000049602958DF81440694606480394FEF7DB
:101280009DFF694603480196FEF798FF08B070BDC0
:1012900000240140200000200B480A494FF400724E
:1012A00001604FF48271416000218160C160016181
:1012B000C0E90512C1610162416281620A21C16215
:1012C000FFF78EBD0030014050000020FEE7704760
:1012D00070B52A4C00252020E5702070257105206E
:1012E0006070601D0570284600F016F9012000F0BE
:1012F0001BF90520FFF70AF90C21002000F00EFB76
:101300000F21052000F06AFA032000F049FA0220BC
:1013100000F020FA08B10120E070062000F0F4F996
:101320000646002000F016FA00F088FA00211D2081
:1013300000F0F4FA00211C2000F0F0FA2571702171
:10134000072000F0EBFA4C2000F000FAE22000F059
:101350004DFAE12000F04AFA00F0C4F9002000F054
:10136000D3F920F00101002000F0D8FA1EB1FF2EC1
:1013700001D0012070BD002070BD000000000020E1
:10138000704738B50B46009204460022802100F0D9
:1013900008F8002804D0606D40F02000606503204C
:1013A00038BD2DE9F0411D4617460E460446DDF8CE
:1013B000188008E0681C06D0FFF7B0F9A0EB080021
:1013C000A8420BD255B12068806836EA000030D0C0
:1013D0000020B842EED10020BDE8F08120684168CD
:1013E00021F0E00141606068B0F5827F0BD1A06818
:1013F000B0F5004F02D0B0F5806F04D120680168CD
:1014000021F040010160A06AB0F5005F09D12068B9
:10141000016821F4005101602068016841F4005125
:101420000160012084F85100002084F8500003205E
:10143000D2E70120CDE77047FFF776B930B593B01A
:1014400028216846FEF775FE14210AA8FEF771FEF2
:10145000002401200F94022504900095102011947F
:1014600005901094129407946846FFF729FB0F200B
:10147000CDE90A040C940D9400210AA80E94FFF7FC
:1014800053FA0FA80F951194FFF7D8F913B030BD98
:101490000D48016841F00101016041680B4A1140AB
:1014A000416001680A4A11400160016821F480210D
:1014B0000160416821F4FE0141604FF41F01816029
:1014C0000449C00308607047001002400000FFF8A4
:1014D000FFFFF6FE08ED00E0FEE70907090E002811
:1014E00004DB00F1E02080F80014704700F00F00EA
:1014F00000F1E02080F8141D704702E008C8121FB8
:1015000008C1002AFAD170477047002001E001C1EC
:10151000121F002AFBD17047024608210148FFF73D
:10152000F7B800000008014010B502461021044839
:10153000FFF7EEF8BDE81040052000F003B800000A
:10154000000801400649074A0968B1FBF2F141432E
:1015500005480022426042688A42FCD3704700007E
:101560001C00002040420F00001000E010B51D20BC
:1015700000F0CAF840F006011D2000F0CFF91C2051
:1015800000F0C2F840F003011C2000F0C7F9024946
:101590000120087110BD000000000020FF2000F0B5
:1015A00025B910B5032000F0AFF8401E022801D87D
:1015B000012010BD002010BD86B0FFF7BDF8FFF779
:1015C0003DFF00252E480095019502950395816900
:1015D00041F00401816180692A4C00F0040004900C
:1015E0002A4618212046FFF793F804200090264849
:1015F000CDE9010569462046FEF79AFF18200090C4
:101600000120CDE901050220039069462046FEF73E
:101610008FFFFFF70FFEFFF73FFEFFF7C2FFFFF759
:1016200057FEFFF7A3FF202000F0D0F81A2000F0AB
:101630008DF81648E82100F041F8012211461046C5
:1016400000F028F8124E3446B6F9040000F11401F7
:10165000292901D3207007E0B6F9020000F1140136
:10166000292903D320704042607001E02570657025
:101670000221074800F0FEF86420FEF747FFE3E789
:10168000001002400008014000002110E2F0F0E8E4
:101690000A00002070B5064614460D46002000F0F2
:1016A00033F8290141EA461141EA8411BDE870404E
:1016B00020F070000143002000F030B913B5084C51
:1016C00069460A20627800F04FF962786946102076
:1016D00000F04AF92178112000F020F91CBD00002B
:1016E0000000002010B5002000F00EF8810709D49A
:1016F00040F00201002000F011F9BDE81040052083
:10170000FEF704BF10BD00003EB500F01F008DF8CD
:10171000080000208DF80400FFF706FF4FF47A74EC
:10172000012301AA02A908480094FFF77DFC0123C8
:1017300001AAFF2104480094FFF776FC0120FFF77F
:10174000F3FE9DF804003EBD500000200146052038
:1017500000F0E4B870B5064600250620FFF7D4FF78
:1017600020F028040D485521022E817002D0012E50
:1017700004D007E044F020049B2102E044F0080478
:10178000412181702146062000F0C8F80620FFF7AD
:10179000BBFFA04200D10125284670BD00000020FB
:1017A00010B504460620FFF7AFFF00F0F801032C48
:1017B00001D9072003E0012000EB4400C0B201433F
:1017C000BDE81040062000F0A9B80000202800D392
:1017D00020200149087070470000002000F00F0031
:1017E00060F31F11042000F099B8000001B582B029
:1017F00000208DF80400FFF797FE4FF47A700090F8
:10180000012301AA02A90448FFF70EFC0120FFF7FB
:101810008BFE9DF804000EBD5000002010B51C4644
:101820000AB1B02200E0A02200F040F8002C04D061
:10183000BDE810400120FFF76FBE10BD38B5502045
:101840008DF800000020FFF76FFE4FF47A742346F6
:10185000012269460648FFF739FB2346012273211E
:101860000348FFF733FB0120FFF75EFE38BD0000A1
:101870005000002010B501231A46FFF7CFFF00BF2C
:10188000FFF78CFE10F0300FFAD00020FFF744FE77
:101890007021072000F042F8C00604D5E120FFF7D0
:1018A000A5FF002010BD012010BD0000FEB50027DF
:1018B0008DF80820174A8DF804700646107881428A
:1018C00000D301460C46117909B1002000E0001B4D
:1018D000C5B20020FFF728FE64200090012301AA72
:1018E00002A90D48FFF7A0FB64232246314604E01D
:1018F00064238DF80070012269460748FFF7E6FA75
:101900006D1EEDB2F4D20120FFF70EFE9DF804002B
:10191000FEBD0000000000205000002003B583B091
:1019200000F01F00002140F020008DF808008DF825
:1019300004100846FFF7F8FD64200090012301AA77
:1019400002A90848FFF770FB4FF47A73012204A93B
:101950000448FFF7BBFA0120FFF7E6FD9DF80400FD
:1019600005B000BD500000203EB50D4600F01F0040
:10197000002140F020008DF8080014468DF8041076
:101980000846FFF7D1FD64200090012301AA02A9B7
:101990000748FFF749FB6423224629460448FFF71E
:1019A00095FA0120FFF7C0FD9DF804003EBD000040
:1019B00050000020000000000000000001020304AD
:1019C00006070809E41900080000002020000000B4
:1019D000FA140008041A00082000002088040000FF
:1019E0000A150008000000000000000000000000D0
:1019F00000000000010000001000000000000000D6
:041A00000024F400CA
:04000005080000ED02
:00000001FF
