:020000040800F2
:10000000F00400200101000877180008EF1700082D
:10001000751800089D0200089D1A000800000000E5
:10002000000000000000000000000000FB190008B4
:10003000D70200080000000029190008FD19000877
:100040001B0100081B0100081B0100081B01000820
:100050001B0100081B0100081B0100081B01000810
:100060001B0100081B0100081B010008A102000879
:100070001B0100081B0100081B0100081B010008F0
:100080001B0100081B0100081B0100081B010008E0
:100090001B0100081B0100081B0100081B010008D0
:1000A0001B0100081B0100081B0100081B010008C0
:1000B0001B0100081B0100081B0100081B010008B0
:1000C0001B0100081B0100081B0100081B010008A0
:1000D0001B0100081B0100081B0100081B01000890
:1000E0001B0100081B0100081B010008DFF80CD0F1
:1000F00000F02AF8004800477D1B0008F0040020AB
:100100000648804706480047FEE7FEE7FEE7FEE7B1
:10011000FEE7FEE7FEE7FEE7FEE7FEE7551A00080A
:10012000ED000008D2B201E000F8012B491EFBD21D
:1001300070470022F6E710B513460A4604461946F2
:10014000FFF7F0FF204610BD064C074D06E0E068C3
:1001500040F0010394E8070098471034AC42F6D30E
:10016000FFF7C8FF901F0008B01F000870B50446D5
:1001700000688168C943C9071CD1816821F0010169
:10018000816000F027FD05460FE000BF00F022FD72
:10019000401B022809D9A06A40F01000A062E06A62
:1001A00040F00100E062012070BD20688068C0431B
:1001B000C007EBD0002070BD10B50146406A826ACE
:1001C00012F0500F05D0006A026BBDE810400846DF
:1001D0001047816A41F40071816201688968C1F346
:1001E000424107290CD1017B51B9816A21F4807108
:1001F0008162816AC90403D4816A41F0010181628C
:1002000000F04EF910BD10B5406A816A41F040011E
:100210008162C16A41F00401C16200F068F910BD59
:1002200010B5406A00F062F910BD0000F8B5002674
:100230000446009600688168C943C90728D08168D0
:1002400041F001018160134813490068B0FBF1F0EF
:1002500000E0401E00900028FBD100F0BBFC0546EA
:1002600011E000BF00F0B6FC401B02280BD9A06AC9
:1002700040F01000A062E06A40F00100E06284F803
:1002800024600120F8BD20688068C043C007E9D120
:100290000020F8BD1C00002040420F00FEE70000D7
:1002A000014800F07FBA0000A800002030B590F8A7
:1002B00040500124AC40C56B6C60046863604368C7
:1002C000102B036803D099600068C26030BD9A604B
:1002D0000068C16030BD704770470000F8B5002568
:1002E0000446009590F82400012808D0012084F8E5
:1002F00024002046FFF73AFF060002D04BE0022020
:10030000F8BDA06A20F4885040F00200A0620220EC
:1003100000F0FEFC22490968B1FBF0F0400000E06B
:10032000401E00900028FBD12046FFF77FFF206889
:10033000816841F00801816000F04CFC074604E050
:1003400000F048FCC01B0A2811D82068806800070C
:10035000F6D42068816841F00401816000F03AFC25
:1003600007460EE000F036FCC01B0A2809D9A06A37
:1003700020F0020040F01000A06284F82450012018
:10038000F8BD206880684007ECD4A06A20F0020025
:1003900040F00100A06284F824503046F8BD00000F
:1003A0001C000020F8B50024009490F82420254675
:1003B000012A12D0012280F824204A681F23072A2C
:1003C0000DD20668776B521E02EB820293409F4368
:1003D0000B6893401F43776319E00220F8BD06685D
:1003E0000D2A0AD2376BD21F02EB820293409F4341
:1003F0000B6893401F43376309E0F76A0D3A02EB3D
:10040000820293409F430B6893401F43F7620A6840
:10041000072306680A2A0AD3F7680A3A02EB42025F
:1004200093409F438B6893401F43F76008E0376910
:1004300002EB420293409F438B6893401F43376116
:100440000A68102A01D0112A20D1124B02689A4260
:1004500017D193681B0219D4936843F40003936087
:100460000968102912D10C490C4A0968B1FBF2F154
:1004700001EB8101490000E0491E00910029FBD1F8
:1004800004E0816A41F020018162012480F8245057
:100490002046F8BD002401401C00002040420F000F
:1004A000114B10B5B3F9000001F03FFA0246B3F961
:1004B000020001F03AFA0C4900F11403891E292BBD
:1004C00001D3087005E002F11400292809D30A704D
:1004D0005042487004480221BDE81040801E01F0DF
:1004E000ABBC0020EDE700000C0000207047704717
:1004F0002DE9F0414FF0000704003D467ED0A06A90
:10050000002628B9E66284F82460204600F07EF8D0
:100510002046FFF72BFEA16AC90600D420B1A06ACD
:1005200040F01000A06269E0A16A21F4885141F016
:100530000201A1626268E169237B0A4347EA430141
:100540000A43A1684FF48077B94209D0012907D046
:100550005FF0000194F814C0BCF1010F02D00AE072
:100560003946F7E7F3B1A36A43F02003A362E36AD5
:1005700043F00103E3622368D3F804C02CF4694C10
:100580004CEA010CC3F804C021688B68DFF870C026
:1005900003EA0C0313438B60A168B9420BD0012915
:1005A00009D00CE0DFF85CC0A3690CEB43330B43CC
:1005B00043F40061DFE7218A0D05A5F58015216868
:1005C000CB6A23F470032B43CB62216889680E4BFE
:1005D0001940914208D1E662A16A21F0020141F07E
:1005E0000101A162BDE8F081A06A20F0020040F0A4
:1005F0001000A062E06A40F00100E0620120F1E733
:10060000FDF7E1FF00E0FFFFFE0E1FFF70B586B0B3
:100610000025064600950195029503950068194945
:1006200088422CD11849886940F400708861886933
:1006300000F400700490886940F0040088618869C3
:10064000694600F0040004900320009001900F48D8
:1006500000F0CAF90F4C0E48C4E900058020C4E937
:100660000250400020618000C4E905052046E56194
:1006700000F042F908B1FFF72FFE3462666206B05F
:1006800070BD00000024014000100240000801403D
:1006900008000240A80000202DE9F04789460446E2
:1006A0003B4900683B4F0E1D9046884201D0B8423E
:1006B00007D1306810F4702F03D001252846BDE81B
:1006C000F08794F8240001280CD0012084F824003D
:1006D0002046FFF7ABFD05004FF0000004D084F882
:1006E0002400EBE70220EAE7A16A40F601629143A9
:1006F00041F48071A1622168B94218D1326812F4C4
:10070000702F14D0A16A41F48011A16231684905AB
:1007100005D5A16A21F4005141F48051A162A16A7A
:10072000C9040AD5E16A21F00601E16206E0A26A85
:1007300022F48012A2624968E9E7E06284F82400AA
:10074000216A15488862216A1448C862216A1448DF
:10075000086321686FF0020008602068816841F436
:1007600080718160216843464A464C31206A00F01E
:10077000F1F820688168C1F342410729816803D0FC
:1007800041F48011816099E741F4A001FAE700008B
:100790000024014000280140B9010008210200089E
:1007A000070200082DE9F05FC16B0C6801680B6857
:1007B000D0F840C0042202FA0CF2494DDFF824A11F
:1007C000494E4A4FDFF828B1DFF828E122422CD009
:1007D0005A072AD50A68920603D40A6822F004024E
:1007E0000A600168A94201D1042219E0514501D1F2
:1007F000402215E0B14202D14FF4806210E0B942CC
:1008000002D14FF480420BE0594502D14FF48022CF
:1008100006E0714502D14FF4800201E04FF08062A2
:100820002F4908394A60C16A3BE04FF0020808FAD4
:100830000CF818EA040F4FF000094FF0010235D010
:100840005FEA837832D50B689B0605D40B6823F0EA
:100850000A030B6080F821200168A94201D102221D
:1008600019E0514501D1202215E0B14202D14FF4E7
:10087000007210E0B94202D14FF400520BE059452A
:1008800002D14FF4003206E0714502D14FF400125C
:1008900001E04FF00072124908394A6080F8209058
:1008A000816A00291AD0BDE8F05F0847082505FADB
:1008B0000CF5254212D01B0710D50B6823F00E0350
:1008C0000B6090F84010C36B02FA01F1596082632B
:1008D00080F8212080F82090016BE2E7BDE8F09FCE
:1008E000080002401C000240300002404400024068
:1008F000580002406C00024030B528B308C81349C4
:1009000014221944B1FBF2F18900C16310498163DB
:10091000022141771A6843F6F0718A43D0E9001446
:100920002143D0E902452C43214304692143446912
:10093000214384692143114319600021416301224D
:1009400042770177084630BD012030BDF8FFFDBF7A
:100950000000024070B5044690F8200000250128F0
:100960000CD0012084F8200094F821600020012E92
:1009700006D084F820000225284670BD022070BDF4
:10098000022684F82160A0632068066826F001062C
:1009900006602046FFF78AFCE06A002820680168AC
:1009A00002D041F00E0106E021F004010160206850
:1009B000016841F00A0101602068016841F001010D
:1009C0000160D9E770B5044600F004F90546601CE3
:1009D00002D004480078044400F0FCF8401BA04218
:1009E000FAD370BD100000202DE9F84FDFF8B89160
:1009F000002409F1040A0AF1040B23460F270BF126
:100A0000040EC9E00125A5402A40AA427DD1674EC7
:100A1000D1F804C0ACEB0608B44532D014DCBCF10C
:100A2000030F3AD009DCBCF1000F2AD0BCF1010F52
:100A30001CD0BCF1020F31D11DE0BCF1110F17D059
:100A4000BCF1120F2AD119E0B8F5881F19D006DCC5
:100A5000B8F5803F15D0B8F5801F1FD111E0B8F56B
:100A6000001F0ED0B8F5041F18D10AE0CB6815E0BE
:100A7000CB681B1D12E0CB6808330FE0CB680C334A
:100A80000CE08B682BB1012B4FF0080303D04561BC
:100A900004E0042302E0056100E00023FF2A01D8FE
:100AA000064601E000F104064FEA840501D9A5F1EC
:100AB0002005D6F8008007FA05FC28EA0C0803FA9E
:100AC00005F548EA0508C6F800804D68ED0062D5D6
:100AD000374DAE6946F00106AE61AD6924F00306FC
:100AE00005F001050095334D06EB050CDCF80850C8
:100AF000A607360F07FA06F825EA0805DFF8B880DA
:100B0000404503D14FF0000817E044E0DFF8AC8027
:100B1000404502D14FF001080FE0DFF8A4804045C6
:100B200002D14FF0020808E0DFF89880404502D17A
:100B30004FF0030801E04FF0040808FA06F848EA0D
:100B40000508CCF808804D68D9F80060ED034D46E3
:100B500001D5164300E096432E604D68DAF8006038
:100B6000AD03554601D5164300E096432E604D680F
:100B7000DBF80060ED025D4601D5164300E09643C8
:100B80002E604D68DEF80060AD02754601D5164353
:100B900000E096432E60641C0D682A46E5407FF411
:100BA00031AFBDE8F88F00000004014000001110D3
:100BB000001002400000014000080140000C01400C
:100BC00000100140001401400AB10161704709049E
:100BD000FBE700000148806870470000100000201B
:100BE000024881680278114481607047100000203B
:100BF000074810B5016841F010010160032000F0C2
:100C000075F8002000F006F800F024F8002010BD70
:100C10000020024070B50D4D04464FF47A712878DB
:100C2000B1FBF0F00A490968B1FBF0F000F0CBFD30
:100C300048B9102C07D200222146501E00F036F889
:100C400000206C6070BD012070BD0000100000200D
:100C50001C0000200C4808B5816941F00101816148
:100C6000816901F001010091C16941F08051C161C8
:100C7000C06900F0805000900448416821F0E061B4
:100C800041F00071416008BD0010024000000140C9
:100C9000002809DB00F01F0201219140400980007B
:100CA00000F1E020C0F8001170470000F0B40E4BD6
:100CB0001B680C46C3F30223C3F10705042D00D9BA
:100CC0000425191D072901D2002300E0DB1E01269F
:100CD00006FA05F1491E214099409E40761E1640B5
:100CE0003143F0BC00F0DBBE0CED00E0064900F043
:100CF000070208684FF6FF03184040EA0220034A43
:100D000010430860704700000CED00E00000FA0599
:100D100010B529A401461DCC86B08DE81D002AA07F
:100D20002A4C006804900020012923D002293AD0DF
:100D300010291DD161682268D20119D5C1F38342FF
:100D4000C9031DF8020009D5616804AAC1F3404136
:100D5000515C1F4AB2FBF1F1484301E01D49484391
:100D60006168490204D440005FF00301B0FBF1F078
:100D700006B010BD226AC2F30121012903D19207F6
:100D800001D5C803F4E7022905D1626A920702D5AA
:100D900049F64040ECE70329EAD121688903E7D509
:100DA0004FF22440E4E700F023F96168C1F3813198
:100DB000491C4900DAE70000020304050607080998
:100DC0000A0B0C0D0E0F1010010200000010024063
:100DD00000127A0000093D002DE9F843054600782D
:100DE000354CC00754D0E0690026C00008D4E06943
:100DF00040F08050E061E069012600F080500090F2
:100E00002E480168C90512D40168804641F48071FA
:100E10000160FFF7DFFE074605E000BFFFF7DAFEDF
:100E2000C01B642823D8D8F80000C005F6D5206A76
:100E300010F4407021D0A98801F4407181421CD087
:100E4000206A1F49012220F440700A6000220A60D3
:100E50002062C00711D0FFF7BDFE074641F2883877
:100E600008E000BFFFF7B6FEC11B414502D90320D1
:100E7000BDE8F883206A8007F4D5206A696820F409
:100E80004070084320621EB1E06920F08050E061AC
:100E90002878800705D56068A96820F44040084399
:100EA00060602878C00605D56068E96820F4800095
:100EB000084360600020DBE7001002400070004043
:100EC000400442422DE9F0470F46050061D0434EF1
:100ED000306800F00700B84209D2306820F00700FF
:100EE00038433060306800F00700B84251D12868BC
:100EF0003B4C810712D5400703D5606840F4E060A1
:100F000060602878000703D5606840F46050606036
:100F10006068A96820F0F000084360602878C00786
:100F200028D06868012810D02168022810D08907CD
:100F300000292EDA616821F0030101436160FFF7A7
:100F400049FE804641F288390DE021688903EFE7C8
:100F50008901EDE7FFF73EFEA0EB0801494502D904
:100F60000320BDE8F0876068696800F00C00B0EB12
:100F7000810FEFD1306800F00700B8420BD930681C
:100F800020F0070038433060306800F00700B842B6
:100F900001D00120E5E72878400705D56068E968B9
:100FA00020F4E060084360602878000706D5606898
:100FB000296920F4605040EAC100606000F028F820
:100FC0006168084AC1F30311515CC84006490860D2
:100FD00006480068FFF71EFE0020C2E7002002401E
:100FE00000100240781F00081C00002014000020A0
:100FF0000448054900684968044AC1F3C221515CAC
:10100000C84070471C00002000100240881F0008E4
:1010100012A185B00FC98DE80F0014A0144A006812
:1010200004905168134801F00C03042B10D0082BD6
:101030000ED1C1F38343C9031DF803000AD55168DB
:1010400004AAC1F34041515C0A4A5043B0FBF1F09D
:1010500005B0704708494843FAE700000203040559
:10106000060708090A0B0C0D0E0F101001020000F4
:101070000010024000127A0000093D002DE9F84FEF
:10108000040070D02078C04DC00749D06868C0F314
:101090008100012807D06868C0F38100022809D1C7
:1010A0006868C00306D52868800339D560680028C1
:1010B000E7D035E06068B0F5803F0BD010B1B0F5F7
:1010C000A02F11D0286820F480302860286820F4F0
:1010D000802002E0286840F480302860606890B189
:1010E000FFF778FD06460AE0286840F48020286073
:1010F000F0E700BFFFF76EFD801B642873D82868F7
:101100008003F7D50CE0FFF765FD064605E000BF5C
:10111000FFF760FD801B6428F0D828688003F7D4AF
:1011200020789A4E80074FF001094FF0000839D51A
:10113000686810F00C0F07D06868C0F381000228BF
:1011400009D16868C00306D42868800714D52069CF
:10115000012808D110E02069B0B1C6F80090FFF76F
:1011600039FD074605E00AE1FFF734FDC01B022800
:10117000C4D828688007F7D52868616920F0F8008E
:1011800040EAC10028600DE0C6F80080FFF722FDAC
:10119000074604E0FFF71EFDC01B022823D828687D
:1011A0008007F7D4207800072CD57948A169D9B1F8
:1011B000C0F80090FFF70EFD074604E0FFF70AFDB8
:1011C000C01B02280FD8686A8007F7D571484FF412
:1011D000FA510068B0FBF1F0009000BF0098411E8A
:1011E0000091FAD20EE080E0C0F80080FFF7F2FC38
:1011F000074604E0FFF7EEFCC01B022875D8686ABA
:101200008007F7D42078400760D5E8690027C00040
:1012100008D4E86940F08050E861E869012700F0EF
:10122000805000905C480168C90513D4016883466A
:1012300041F480710160FFF7CDFC824606E000BFFB
:10124000FFF7C8FCA0EB0A0064284ED8DBF80000CA
:10125000C005F5D5E06801280AD008B1052813D0EB
:10126000286A20F001002862286A20F0040002E0C9
:10127000286A40F001002862E06841F2883B98B19A
:10128000FFF7A8FC82460BE0286A40F004002862C1
:10129000EEE700BFFFF79EFCA0EB0A0159455AD8C4
:1012A000286A8007F6D50CE0FFF794FC824605E03B
:1012B000FFF790FCA0EB0A0159454CD8286A80073B
:1012C000F6D41FB1E86920F08050E861E06988B386
:1012D0006968C1F38101022944D00228C6F8608000
:1012E00004D0FFF777FC044638E034E0FFF772FCE7
:1012F000074604E0FFF76EFCC01B02282BD82868C5
:101300008001F7D4206AB0F5803F05D16868A168F4
:1013100020F4003008436860D4E908010843696894
:1013200021F4741108436860C6F86090FFF752FC1E
:10133000044606E025E000BFFFF74CFC001B022836
:1013400009D828688001F7D51BE000BFFFF742FCF1
:10135000001B022802D90320BDE8F88F286880010D
:10136000F4D40EE00128F7D06868226A00F48031D6
:10137000914204D1616A00F47010884201D00120CA
:10138000EAE70020E8E700000010024000004242C7
:10139000800442421C0000200070004070B5040030
:1013A00005D00025A56294F8510010B106E0012097
:1013B00070BD84F85050204600F02EF8022084F8CA
:1013C00051002068016821F040010160D4E9010169
:1013D0000843D4E903121143084361690843218B90
:1013E00001F400710843E1690843216A0843A16AD6
:1013F000084321680860A069042101EA10402168BF
:1014000048602068C16921F40061C16165650120FF
:1014100084F85100002070BD30B585B000240094E0
:1014200001940294039400681449884223D114481B
:10143000816941F480518161816901F48051049195
:10144000816941F00401816180690E4D00F0040062
:101450000490A02000900220019003200390694690
:101460002846FFF7C1FA4020CDE900046946284626
:101470000294FFF7B9FA05B030BD0000003001401A
:1014800000100240000801402DE9F84F044690F892
:10149000500000271D461646894601280DD04FF002
:1014A000010B84F850B0FFF795FB804694F851008B
:1014B000BA46012804D002278EE00220BDE8F88F4A
:1014C000B9F1000F7DD0002E7BD0032084F85100AD
:1014D000C4F854A0C4F83090A686E686C4F838A0B4
:1014E000A4F83CA0A4F83EA0C4F844A0C4F840A0CE
:1014F000A068B0F5004F04D12068016841F4804134
:10150000016020680168490603D4016841F0400188
:101510000160E068B0F5006F606803D030B3012E61
:1015200024D040E008B1012E1CD1206B2168008836
:10153000C86006E020688168890709D5216B0988A1
:10154000C160206B801C2063E08E401EE08609E0B5
:10155000FFF740FBA0EB0800A84202D3681C01D0B3
:1015600031E07DB3E08E0028E4D11FE0206B2168DC
:101570000078087306E020688168890709D5216B27
:1015800009780173206B401C2063E08E401EE086CA
:1015900009E0FFF71FFBA0EB0800A84202D3681C7C
:1015A00001D010E075B1E08E0028E4D14246294612
:1015B000204600F0C8F908B120206065A06820B17D
:1015C00007E008E0FFE7032706E02068C1688068BD
:1015D0000090606D00B1012784F851B084F850A0EC
:1015E00038466BE72DE9F84F044690F85000002785
:1015F0000A9E1D4692468B464FF0010901280ED0E7
:10160000012084F85000FFF7E5FA804694F8510075
:10161000616801280CD0B1F5827F07D102E0022079
:10162000BDE8F88FA16809B9042801D00227C2E0FB
:10163000BBF1000F27D0BAF1000F24D01DB394F8EE
:101640005100042802D0052084F851000020606574
:10165000C4F838A0E587A587C4F830B0E586A5862C
:101660002064606420680168490603D4016841F081
:1016700040010160E068B0F5006F606805D0E8B334
:10168000012D46D07FE0012795E008B1012D39D129
:10169000206B21680088C860206B801C2063E08E6E
:1016A000401EE0862EE02068816889070FD5E18E14
:1016B00069B1B9F1010F0AD1216B0988C160206BB2
:1016C000801C2063E08E401EE0864FF000092068F9
:1016D0008168C9070CD0E18F51B1C068A16B088047
:1016E000A06B801CA063E08F401EE0874FF00109D3
:1016F000FFF770FAA0EB0800B04200E009E001D368
:10170000701C50D1E08E0028CDD1E08F0028CAD1C6
:101710003FE0206B216800780873206B401C206339
:10172000E08E401EE0862EE02068816889070FD594
:10173000E18E69B1B9F1010F0AD1216B097801730A
:10174000206B401C2063E08E401EE0864FF00009B5
:1017500020688168C9070CD0E18F51B1C068A16BC6
:101760000870A06B401CA063E08F401EE0874FF024
:101770000109FFF72FFAA0EB0800B04202D3701C5A
:1017800001D010E07EB1E08E0028CDD1E08F00289E
:10179000CAD142463146204600F0D5F828B101278B
:1017A0002020606507E0032705E0A06818B92068DD
:1017B000C16880680090012084F85100002084F8FE
:1017C000500038462CE710B5401EB0F1807F01D3A1
:1017D000012010BD4FF0E02460610F21601700F080
:1017E0005EF90020A06107202061002010BDFEE707
:1017F000FEB500241148009401940F490294016041
:1018000089158160012505730475022606614FF470
:1018100060214460C161FEF76BFECDE90045694679
:1018200006480295FEF7BEFDCDE90056694603481D
:10183000FEF7B8FDFEBD000000240140200000209E
:101840000B480A494FF4007201604FF48271416005
:1018500000218160C1600161C0E90512C1610162BE
:10186000416281620A21C162FFF798BD00300140E8
:1018700050000020FEE7704770B52A4C002520205C
:10188000E5702070257105206070601D0570284688
:1018900000F024F9012000F029F90520FFF792F863
:1018A0000C21002000F01CFB0F21052000F078FA2D
:1018B000032000F057FA022000F02EFA08B10120B0
:1018C000E070062000F002FA0646002000F024FA3C
:1018D00000F096FA00211D2000F002FB00211C20E0
:1018E00000F0FEFA25717021072000F0F9FA4C2073
:1018F00000F00EFAE22000F05BFAE12000F058FA66
:1019000000F0D2F9002000F0E1F920F00101002000
:1019100000F0E6FA1EB1FF2E01D0012070BD0020BC
:1019200070BD000000000020704740F674618842DE
:1019300001D919207047B0F5FA6F02D26FF0180084
:1019400070470020704738B50B46009204460022CD
:10195000802100F008F8002804D0606D40F02000DD
:101960006065032038BD2DE9F0411D4617460E463F
:101970000446DDF8188008E0681C06D0FFF72AF955
:10198000A0EB0800A8420BD255B12068806836EA67
:10199000000030D00020B842EED10020BDE8F08138
:1019A0002068416821F0E00141606068B0F5827F05
:1019B0000BD1A068B0F5004F02D0B0F5806F04D114
:1019C0002068016821F040010160A06AB0F5005F65
:1019D00009D12068016821F4005101602068016884
:1019E00041F400510160012084F85100002084F886
:1019F00050000320D2E70120CDE77047FFF7F0B891
:101A000030B593B028216846FEF793FB14210AA84D
:101A1000FEF78FFB002401200F940225049000950F
:101A20001020119405901094129407946846FFF7C3
:101A300025FB0F20CDE90A040C940D9400210AA87F
:101A40000E94FFF73FFA0FA80F951194FFF7C4F912
:101A500013B030BD0D48016841F0010101604168DB
:101A60000B4A1140416001680A4A11400160016857
:101A700021F480210160416821F4FE0141604FF4AE
:101A80001F0181600449C0030860704700100240D4
:101A90000000FFF8FFFFF6FE08ED00E0FEE7090793
:101AA000090E002804DB00F1E02080F800147047E4
:101AB00000F00F0000F1E02080F8141D704702E0F4
:101AC00008C8121F08C1002AFAD1704770470020C9
:101AD00001E001C1121F002AFBD170470246082114
:101AE0000148FFF771B800000008014010B5024638
:101AF00010210448FFF768F8BDE81040052000F009
:101B000003B80000000801400649074A0968B1FB14
:101B1000F2F1414305480022426042688A42FCD308
:101B2000704700001C00002040420F00001000E041
:101B300010B51D2000F0CAF840F006011D2000F08D
:101B4000CFF91C2000F0C2F840F003011C2000F087
:101B5000C7F902490120087110BD000000000020F3
:101B6000FF2000F025B910B5032000F0AFF8401EAB
:101B7000022801D8012010BD002010BD86B0FFF75B
:101B800037F8FFF73DFF00252D4C00950195029594
:101B90000395A06940F00400A061A069294E00F0FF
:101BA000040004902A4618213046FFF70DF804205F
:101BB00000902548CDE9010569463046FEF714FF3F
:101BC000182000900120CDE901050220039069460C
:101BD0003046FEF709FF606940F00100606160690E
:101BE000002200F00100009011460B20FFF75EF884
:101BF0000B20FFF74DF8FFF7FBFDFFF721FEFFF786
:101C0000B2FFFFF739FEFFF793FF202000F0C0F886
:101C10001A2000F07DF80D48E82100F031F801228B
:101C20001146104600F018F80948FEF757FB02224B
:101C300008490748FEF730FD6420FEF7C3FEFBE7C6
:101C4000001002400008014000002110E2F0F0E81E
:101C5000200000200C00002070B5064614460D46FA
:101C6000002000F033F8290141EA461141EA8411CD
:101C7000BDE8704020F070000143002000F030B952
:101C800013B5084C69460A20627800F04FF9627873
:101C90006946102000F04AF92178112000F020F95F
:101CA0001CBD00000000002010B5002000F00EF860
:101CB000810709D440F00201002000F011F9BDE8CD
:101CC00010400520FEF77EBE10BD00003EB500F0BE
:101CD0001F008DF8080000208DF80400FFF706FFB4
:101CE0004FF47A74012301AA02A908480094FFF76F
:101CF00079FC012301AAFF2104480094FFF772FC3C
:101D00000120FFF7F3FE9DF804003EBD50000020C7
:101D10000146052000F0E4B870B50646002506200F
:101D2000FFF7D4FF20F028040D485521022E8170C2
:101D300002D0012E04D007E044F020049B2102E0F1
:101D400044F00804412181702146062000F0C8F8C3
:101D50000620FFF7BBFFA04200D10125284670BD39
:101D60000000002010B504460620FFF7AFFF00F08A
:101D7000F801032C01D9072003E0012000EB440007
:101D8000C0B20143BDE81040062000F0A9B8000031
:101D9000202800D32020014908707047000000204F
:101DA00000F00F0060F31F11042000F099B800004C
:101DB00001B582B000208DF80400FFF797FE4FF4C4
:101DC0007A700090012301AA02A90448FFF70AFCD7
:101DD0000120FFF78BFE9DF804000EBD500000208F
:101DE00010B51C460AB1B02200E0A02200F040F875
:101DF000002C04D0BDE810400120FFF76FBE10BDDD
:101E000038B550208DF800000020FFF76FFE4FF42A
:101E10007A742346012269460648FFF735FB2346BC
:101E2000012273210348FFF72FFB0120FFF75EFE1D
:101E300038BD00005000002010B501231A46FFF7FE
:101E4000CFFF00BFFFF78CFE10F0300FFAD000205C
:101E5000FFF744FE7021072000F042F8C00604D5C9
:101E6000E120FFF7A5FF002010BD012010BD0000FC
:101E7000FEB500278DF80820174A8DF80470064635
:101E80001078814200D301460C46117909B1002037
:101E900000E0001BC5B20020FFF728FE6420009080
:101EA000012301AA02A90D48FFF79CFB64232246E7
:101EB000314604E064238DF800700122694607482A
:101EC000FFF7E2FA6D1EEDB2F4D20120FFF70EFE2D
:101ED0009DF80400FEBD000000000020500000201E
:101EE00003B583B000F01F00002140F020008DF802
:101EF00008008DF804100846FFF7F8FD64200090F4
:101F0000012301AA02A90848FFF76CFB4FF47A737A
:101F1000012204A90448FFF7B7FA0120FFF7E6FD04
:101F20009DF8040005B000BD500000203EB50D46F0
:101F300000F01F00002140F020008DF8080014463A
:101F40008DF804100846FFF7D1FD642000900123AE
:101F500001AA02A90748FFF745FB64232246294648
:101F60000448FFF791FA0120FFF7C0FD9DF8040037
:101F70003EBD0000500000200000000000000000F6
:101F8000010203040607080900000000010203041F
:101F9000B01F00080000002020000000BE1A00084A
:101FA000D01F000820000020D0040000CE1A000836
:101FB0000000000000000000000000000000000021
:101FC0000100000010000000000000000024F400E8
:04000005080000ED02
:00000001FF
